{
  "contractName": "Core",
  "abi": [
    {
      "constant": false,
      "inputs": [
        {
          "name": "wallet",
          "type": "address"
        },
        {
          "name": "username",
          "type": "string"
        },
        {
          "name": "password",
          "type": "string"
        }
      ],
      "name": "onEntered",
      "outputs": [],
      "payable": false,
      "stateMutability": "nonpayable",
      "type": "function",
      "signature": "0xfffc9fe9"
    },
    {
      "constant": false,
      "inputs": [
        {
          "name": "id",
          "type": "address"
        }
      ],
      "name": "tipUser",
      "outputs": [],
      "payable": true,
      "stateMutability": "payable",
      "type": "function",
      "signature": "0x12bf6e9f"
    }
  ],
  "bytecode": "0x608060405234801561001057600080fd5b50610630806100206000396000f3fe60806040526004361061004c576000357c0100000000000000000000000000000000000000000000000000000000900463ffffffff16806312bf6e9f14610051578063fffc9fe914610095575b600080fd5b6100936004803603602081101561006757600080fd5b81019080803573ffffffffffffffffffffffffffffffffffffffff169060200190929190505050610214565b005b3480156100a157600080fd5b50610212600480360360608110156100b857600080fd5b81019080803573ffffffffffffffffffffffffffffffffffffffff169060200190929190803590602001906401000000008111156100f557600080fd5b82018360208201111561010757600080fd5b8035906020019184600183028401116401000000008311171561012957600080fd5b91908080601f016020809104026020016040519081016040528093929190818152602001838380828437600081840152601f19601f8201169050808301925050505050505091929192908035906020019064010000000081111561018c57600080fd5b82018360208201111561019e57600080fd5b803590602001918460018302840111640100000000831117156101c057600080fd5b91908080601f016020809104026020016040519081016040528093929190818152602001838380828437600081840152601f19601f82011690508083019250505050505050919291929050505061025e565b005b8073ffffffffffffffffffffffffffffffffffffffff166108fc349081150290604051600060405180830381858888f1935050505015801561025a573d6000803e3d6000fd5b5050565b600015156000808573ffffffffffffffffffffffffffffffffffffffff1673ffffffffffffffffffffffffffffffffffffffff16815260200190815260200160002060030160009054906101000a900460ff161515141561050f576102c1610514565b83816020019073ffffffffffffffffffffffffffffffffffffffff16908173ffffffffffffffffffffffffffffffffffffffff168152505082816000018190525060008160400181815250506002826040516020018082805190602001908083835b6020831015156103485780518252602082019150602081019050602083039250610323565b6001836020036101000a0380198251168184511680821785525050505050509050019150506040516020818303038152906040526040518082805190602001908083835b6020831015156103b1578051825260208201915060208101905060208303925061038c565b6001836020036101000a038019825116818451168082178552505050505050905001915050602060405180830381855afa1580156103f3573d6000803e3d6000fd5b5050506040513d602081101561040857600080fd5b81019080805190602001909291905050508160800181815250506001816060019015159081151581525050806000808673ffffffffffffffffffffffffffffffffffffffff1673ffffffffffffffffffffffffffffffffffffffff168152602001908152602001600020600082015181600001908051906020019061048e92919061055f565b5060208201518160010160006101000a81548173ffffffffffffffffffffffffffffffffffffffff021916908373ffffffffffffffffffffffffffffffffffffffff1602179055506040820151816002015560608201518160030160006101000a81548160ff02191690831515021790555060808201518160040155905050505b505050565b60a06040519081016040528060608152602001600073ffffffffffffffffffffffffffffffffffffffff16815260200160008152602001600015158152602001600080191681525090565b828054600181600116156101000203166002900490600052602060002090601f016020900481019282601f106105a057805160ff19168380011785556105ce565b828001600101855582156105ce579182015b828111156105cd5782518255916020019190600101906105b2565b5b5090506105db91906105df565b5090565b61060191905b808211156105fd5760008160009055506001016105e5565b5090565b9056fea165627a7a72305820a665b70ce9136406cad9d6c64c69b56280186b863086147105db21edb5c00f840029",
  "source": "pragma solidity ^0.5.0;\n\ncontract Core {\n  \n    mapping(address => User) users;\n    mapping(int => Post)     posts;\n\n    struct User {\n        string          username;\n        address payable uniqueIdentifier;\n        int             score;\n        bool            exists;\n        bytes32         pHash;\n    }\n\n    struct Post {\n        string          description;\n        uint            tipAmount;\n        int             score;\n        address payable author;\n    }\n\n    function onEntered(address payable wallet, string memory username, string memory password) public {\n\n        if (users[wallet].exists == false) {\n            User memory u;\n            u.uniqueIdentifier = wallet;\n            u.username         = username;\n            u.score            = 0;\n            u.pHash            = sha256(abi.encodePacked(password));\n            u.exists           = true;\n\n            users[wallet] = u;\n        }\n    }\n\n    function tipUser(address payable id) public payable {\n        address(id).transfer(msg.value);\n    }\n}",
  "sourcePath": "/Users/newtest/Documents/Projects/sol/webgame/ether-game/src/contracts/Core.sol",
  "compiler": {
    "name": "solc",
    "version": "0.5.0+commit.1d4f565a.Emscripten.clang"
  },
  "schemaVersion": "3.0.2",
  "updatedAt": "2022-03-19T20:47:24.739Z",
  "devdoc": {
    "methods": {}
  },
  "userdoc": {
    "methods": {}
  }
}