{
  "contractName": "Core",
  "abi": [
    {
      "constant": true,
      "inputs": [],
      "name": "count",
      "outputs": [
        {
          "name": "",
          "type": "uint256"
        }
      ],
      "payable": false,
      "stateMutability": "view",
      "type": "function",
      "signature": "0x06661abd"
    },
    {
      "anonymous": false,
      "inputs": [
        {
          "indexed": false,
          "name": "i",
          "type": "uint256"
        }
      ],
      "name": "Incremented",
      "type": "event",
      "signature": "0x20d8a6f5a693f9d1d627a598e8820f7a55ee74c183aa8f1a30e8d4e8dd9a8d84"
    },
    {
      "constant": false,
      "inputs": [
        {
          "name": "wallet",
          "type": "address"
        },
        {
          "name": "username",
          "type": "string"
        },
        {
          "name": "password",
          "type": "string"
        }
      ],
      "name": "onEntered",
      "outputs": [],
      "payable": false,
      "stateMutability": "nonpayable",
      "type": "function",
      "signature": "0xfffc9fe9"
    },
    {
      "constant": false,
      "inputs": [
        {
          "name": "id",
          "type": "address"
        }
      ],
      "name": "tipUser",
      "outputs": [],
      "payable": true,
      "stateMutability": "payable",
      "type": "function",
      "signature": "0x12bf6e9f"
    },
    {
      "constant": false,
      "inputs": [],
      "name": "increment",
      "outputs": [],
      "payable": false,
      "stateMutability": "nonpayable",
      "type": "function",
      "signature": "0xd09de08a"
    }
  ],
  "bytecode": "0x608060405234801561001057600080fd5b506106d5806100206000396000f3fe608060405260043610610062576000357c0100000000000000000000000000000000000000000000000000000000900463ffffffff16806306661abd1461006757806312bf6e9f14610092578063d09de08a146100d6578063fffc9fe9146100ed575b600080fd5b34801561007357600080fd5b5061007c61026c565b6040518082815260200191505060405180910390f35b6100d4600480360360208110156100a857600080fd5b81019080803573ffffffffffffffffffffffffffffffffffffffff169060200190929190505050610272565b005b3480156100e257600080fd5b506100eb6102bc565b005b3480156100f957600080fd5b5061026a6004803603606081101561011057600080fd5b81019080803573ffffffffffffffffffffffffffffffffffffffff1690602001909291908035906020019064010000000081111561014d57600080fd5b82018360208201111561015f57600080fd5b8035906020019184600183028401116401000000008311171561018157600080fd5b91908080601f016020809104026020016040519081016040528093929190818152602001838380828437600081840152601f19601f820116905080830192505050505050509192919290803590602001906401000000008111156101e457600080fd5b8201836020820111156101f657600080fd5b8035906020019184600183028401116401000000008311171561021857600080fd5b91908080601f016020809104026020016040519081016040528093929190818152602001838380828437600081840152601f19601f820116905080830192505050505050509192919290505050610303565b005b60025481565b8073ffffffffffffffffffffffffffffffffffffffff166108fc349081150290604051600060405180830381858888f193505050501580156102b8573d6000803e3d6000fd5b5050565b6064600254016002819055507f20d8a6f5a693f9d1d627a598e8820f7a55ee74c183aa8f1a30e8d4e8dd9a8d846002546040518082815260200191505060405180910390a1565b600015156000808573ffffffffffffffffffffffffffffffffffffffff1673ffffffffffffffffffffffffffffffffffffffff16815260200190815260200160002060030160009054906101000a900460ff16151514156105b4576103666105b9565b83816020019073ffffffffffffffffffffffffffffffffffffffff16908173ffffffffffffffffffffffffffffffffffffffff168152505082816000018190525060008160400181815250506002826040516020018082805190602001908083835b6020831015156103ed57805182526020820191506020810190506020830392506103c8565b6001836020036101000a0380198251168184511680821785525050505050509050019150506040516020818303038152906040526040518082805190602001908083835b6020831015156104565780518252602082019150602081019050602083039250610431565b6001836020036101000a038019825116818451168082178552505050505050905001915050602060405180830381855afa158015610498573d6000803e3d6000fd5b5050506040513d60208110156104ad57600080fd5b81019080805190602001909291905050508160800181815250506001816060019015159081151581525050806000808673ffffffffffffffffffffffffffffffffffffffff1673ffffffffffffffffffffffffffffffffffffffff1681526020019081526020016000206000820151816000019080519060200190610533929190610604565b5060208201518160010160006101000a81548173ffffffffffffffffffffffffffffffffffffffff021916908373ffffffffffffffffffffffffffffffffffffffff1602179055506040820151816002015560608201518160030160006101000a81548160ff02191690831515021790555060808201518160040155905050505b505050565b60a06040519081016040528060608152602001600073ffffffffffffffffffffffffffffffffffffffff16815260200160008152602001600015158152602001600080191681525090565b828054600181600116156101000203166002900490600052602060002090601f016020900481019282601f1061064557805160ff1916838001178555610673565b82800160010185558215610673579182015b82811115610672578251825591602001919060010190610657565b5b5090506106809190610684565b5090565b6106a691905b808211156106a257600081600090555060010161068a565b5090565b9056fea165627a7a72305820dffbaf5a11313c25886a1a8270b2bd3a3f3fef4ae2b227fd7ded4058b4f8832a0029",
  "source": "pragma solidity ^0.5.0;\n\ncontract Core {\n  \n    mapping(address => User) users;\n    mapping(int => Post)     posts;\n\n    uint public count;\n\n    struct User {\n        string          username;\n        address payable uniqueIdentifier;\n        int             score;\n        bool            exists;\n        bytes32         pHash;\n    }\n\n    struct Post {\n        string          description;\n        uint            tipAmount;\n        int             score;\n        address payable author;\n    }\n\n    event Incremented(uint i);\n\n    function onEntered(address payable wallet, string memory username, string memory password) public {\n\n        if (users[wallet].exists == false) {\n            User memory u;\n            u.uniqueIdentifier = wallet;\n            u.username         = username;\n            u.score            = 0;\n            u.pHash            = sha256(abi.encodePacked(password));\n            u.exists           = true;\n\n            users[wallet] = u;\n        }\n    }\n\n    function tipUser(address payable id) public payable {\n        address(id).transfer(msg.value);\n    }\n\n    function increment() public {\n        count = count + 100;\n        emit Incremented(count);\n    }\n}",
  "sourcePath": "/Users/newtest/Documents/Projects/sol/webgame/ether-game/src/contracts/Core.sol",
  "compiler": {
    "name": "solc",
    "version": "0.5.0+commit.1d4f565a.Emscripten.clang"
  },
  "schemaVersion": "3.0.2",
  "updatedAt": "2022-03-20T18:56:15.266Z",
  "devdoc": {
    "methods": {}
  },
  "userdoc": {
    "methods": {}
  }
}